:400000000080002011000000110500001105000008B5044B1A6803F53F5302331A6000F079FA00BFFA46004010B5054C237833B9044B13B10448AFF300800123237010BDD8
:400040002081FF1F00000000D8140000084B10B51BB108480849AFF300800848036803B910BD074B002BFBD0BDE81040184700BF00000000D81400002481FF1F0881FF1F39
:40008000000000000122014B1A6070473C81FF1F2DE9F04186B062B601F034F800F0BEFC40F6B83001F08AF900F064FC01F0A6F8682000F0A7F800F01BF901F051F84E480D
:4000C00001F05CF8022000F0B3F8002000F0A0F800F01CF900F02CF900F03CF900F04CF900F05CF900F06CF900F0B2FF00252E4600E04446414B1B68A4B2012BFAD10DF14A
:400100000E03009303AB01930DF1160005A90DF1120204AB00F09CF800F0A8FF00F0AEFF804687B2E41BA4B200F0B6FF642802D1002000F0B9FF0022304B1A60BDF8103072
:4001400003F5C34327339BB24CF24E32934208D9B5F5FA7F07DA46F29053ADF81030013502E0002500E00025BDF90E2040F6B7339A4208DD224B9E4207DC46F29053ADF86B
:400180000E30013602E0002600E00026B8F1C70F03DCC82000F094FBABE7BDF80C3003F56A5318339BB248F6B802934204D94FF48C7000F085FB9CE7A7F25337BFB2F82F90
:4001C00004D84FF4437000F07BFB92E724B240F252339C420ADDBDF90E2046F290539A4204D14FF4827000F06BFB82E74FF4BE7000F066FB7DE700BF850000003C81FF1F13
:400200009F860100014B1870704700BF4C81FF1F00B583B0054B1B78009018461B210422022300F04FF903B05DF804FB4C81FF1F00B583B0054B1B78009018461C210422DD
:40024000022300F03FF903B05DF804FB4C81FF1F2DE9F04180460F4616461D46154C234613F8010B3B210E2200F0BCF86278A37843EA0223A8F80030E278237943EA0223AE
:400280003B806279A37943EA02233380627AA37A43EA02232B80E27A237B43EA0223069A1380627BA37B43EA0223079A1380BDE8F08100BF4C81FF1F08B50346034A1078F6
:4002C0006B21062200F0DEF808BD00BF4C81FF1F00B583B0054B1B78009018466B210222032300F0EFF803B05DF804FB4C81FF1F08B50120FFF7ECFF0020FFF789FF002040
:40030000FFF796FF0020FFF7D7FF08BD10B5074C234613F8010B0621022200F063F86078A37843EA002000B210BD00BF4C81FF1F10B5074C234613F8010B0821022200F015
:4003400051F86078A37843EA002000B210BD00BF4C81FF1F10B5074C234613F8010B0A21022200F03FF86078A37843EA002000B210BD00BF4C81FF1F10B5074C234613F8C8
:40038000010B1321022200F02DF86078A37843EA002000B210BD00BF4C81FF1F10B5074C234613F8010B1521022200F01BF86078A37843EA002000B210BD00BF4C81FF1FFD
:4003C00010B5074C234613F8010B1721022200F009F86078A37843EA002000B210BD00BF4C81FF1F70B582B0064614461D4602AB03F8011D19460122022300F089FC00F07D
:4004000055FD10F0020FFAD0304629462246012300F0E4FC00F04AFD10F0010FFAD060B202B070BD08B513460122FFF7DBFF08BDB0B500AF0546541C083222F00702ADEBC2
:40044000020D684600F8011B194601F03CF828466946E2B2002300F05BFC00F027FD10F0020FFAD00120BD46B0BD00BF00B583B002AB03F8012D0122FFF7DAFF03B05DF815
:4004800004FB00BFF0B583B005460C4616461F460DF10702FFF7C6FF37B10122B2409DF807301A43D2B205E00122B2409DF8073023EA02028DF8072028462146FFF7D6FFB9
:4004C00003B0F0BDF0B583B006460D4614461F460DF10702FFF7A6FFB0B10121B9400139E41B0134A1409DF82030A340DBB20B409DF8072022EA01021A438DF8072030460F
:400500002946FFF7B3FF00E0002003B0F0BD00BFFEE700BF08B5104E104D16E029686B68AC68002204E051F8040B43F8040B0432A242F8D1E868002203E0002143F8041BA0
:4005400004328242F9D11035013E002EE6D100F081FFFFF79DFDFEE7010000003015000008B5124A124B1A60124A136843F40073136000230AE0032B03D80F4A52F8231053
:4005800000E00E490E4A42F8231001332F2BF2D90C4B1A780C4B1A70094A0C4B1A6000F0EDF800220A4B1A6008BD00BF0004FA050CED00E014ED00E00000000011050000DB
:4005C0000080FF1FBC7600400481FF1F08ED00E00081FF1FFEE700BFF0B40022174611E050F82760F3B226F0FF0608E001EB420511F812406D78A5550132013BDBB2002B11
:40060000F4D101371F2FEBD9F0BC704770B4174B1B78DBB216480278D2B2164C2178C9B203F00706144D2E701B0901352B7042F00303037041F0030323704023A5F24275B6
:400640002B7005F2DC752B7002352B70042305F21D252B70202603352E702D352B70217002704422054B1A7070BC7047CF010049F8460040F94600406E58004076580040C6
:4006800008B50A46002100F016FF08BD38B500242E4B1C80582202331A70012202331A8018232B4A13704FF49C71023211800232137047F22F530232138019250232157079
:4006C00002321380234B1D70022203F26E231A7008224FF040231A70032103F5007319701D4B1B78DBB21D490B701D4B1A8041F25122023B1A800CE01A4B1B7803F00103D3
:4007000043EA440404F003044FF4F07000F044FE013D0DB1032CEFD115B90320FFF75AFF114B4FF480721A8007221A7000220F490A704820023108701A700222033B1A70EE
:400740000B4A137843F01F03137038BD80400040864000409240004008010049A146004022420040254200400440004006400040A243004008B500F093FE08BD38B572B6A9
:40078000314A137843F00403137000240CE02F4963001A1952000A4423445B00C8589188FFF76EFF0134E4B2072CF0D94FF090402749FFF711FF274A137843F00203137057
:4007C0001032137843F002031370234C237843F040032370A2F58632513A137843F0100313701E481E490822FFF7C4FF1D481E490A22FFF7BFFF1D481D490A22FFF7BAFF2E
:400800001C481D490A22FFF7B5FF1C481C490822FFF7B0FF84221B4B1A701B4A137843F008031370194D61232B70FFF72FFF81232B700122164B1A70FFF7E8FE15482146A3
:400840000E22FFF797FF38BDE8460040DC1400008000004803500140A04300400251004010070048C051004018070048105100402407004820510040300700483251004039
:400880003C070048DB020140224300400048004004000840B0430040024A137843F080031370704774640040014B1880704700BF08680040014B1880704700BF8868004070
:4008C000014B1880704700BF48680040014B1880704700BF68680040014B1870704700BF85640040014B1878704700BF65640040014B188880B27047A868004008B501E0B3
:40090000FFF7F6FFFFF7EEFF10F0100FF8D108BD10B5164A137803F0C00343F0090313702032137843F001031370114C237843F00103237040F27750FFF7B6FF40F277501E
:40094000FFF7B8FF0020FFF7BBFF0020FFF7BEFF0020FFF7C1FF00F027FD237843F01003237000F025FDFFF7C9FF10BD746400409564004008B5054B1B7823B9FFF7C8FFA2
:400980000122024B1A70FFF787FF08BD4081FF1F10B50222114B1A7081220E3B1A70082202331A70042211331A70002401331C704FF400420A4B1A600F20072100F032FD4D
:4009C0000F20084900F01AFD1022074B1A70074B1C70074B1C70074B1C7010BDD649004080E100E0450A00005B81FF1F5E81FF1F6681FF1F5C81FF1F08B500F0D5FC064A47
:400A0000137843F0040313701032137843F00403137000F0CDFC08BDA543004008B5074B1B7823B9FFF7B4FF0122044B1A70FFF7E3FF4FF40042024B1A6008BD4181FF1F52
:400A400000E100E038B5A44B1C78E4B2A34B1B7813F0400F00F0378114F0010F00F01B819E4B1B78453B052B00F21281DFE813F006008200100110010600DE0004F0DF05B3
:400A800004F00A04082C42D1944B1B78DBB2452B35D1934B1B7813F0FF0F10D0914B1B681B78DBB2904A137004228B4B1A7001228E4B1A704622894B1A702C46EBE08C4B54
:400AC0001B7813F0020F0DD08A4A137843F00A0313706022814B1A704FF40042864B1A602C46D8E0854A137843F0100313701022834B1A700422023B1A702C46CBE00022A5
:400B0000754B1A704A22754B1A702C46C3E00A2C2BD1784A137843F0A0031370744B1B7813F0020F14D06D4B1B7813F0080F01D0092300E00A236F4A11780B43137060227A
:400B4000664B1A704FF400426B4B1A602C46A2E06A4A137843F0100313701022684B1A700422023B1A702C4695E0002000F024FC2C4690E014F0020F35D15C4B1B78584A3D
:400B80001278DBB2934210D2584A1378DBB255490968CB5CDBB254490B7004214E4B197013780133DBB2137075E0514B1B7813F0020F0CD04F4A137843F00A0313706022DF
:400BC000464B1A704FF400424B4B1A6063E04B4A137843F0100313701022494B1A700422023B1A7057E0424B1B7813F0020F0CD0404A137843F09A0313706022374B1A709F
:400C00004FF400423C4B1A6045E03C4A137843F01003137010223A4B1A700422023B1A70344A137843F09003137034E0354A1378DBB2354908682C490978C9B2C154137805
:400C40000133DBB213701378304A1278DBB2934203D21022204B1A701DE0254B1B7813F0020F0CD0234A137843F00903137060221A4B1A704FF400421F4B1A600BE01F4A6B
:400C8000137843F0100313700022134B1A7002E0002000F091FB14F0200F1CD00F4B1B7813F0080F01D0012300E00223114A11780B431370114A137803F0EF031370102203
:400CC000064B1A7038BD054B1B7813F0100F02D11022024B1A7038BDD74900405B81FF1F5D81FF1F6881FF1FD84900405C81FF1F6481FF1F5E81FF1F80E100E0D6490040F5
:400D0000D94900406681FF1F6081FF1F6581FF1F002948D070B40C4626490978C9B2102906D12549097811F0080F11D1002112E020490978C9B260290CD14FF400451F4960
:400D40000D601F4D297801F0F7012970002102E0012100E0022149BB4526164D2E700026184D2E70184D2A70184A1460184A1370134C227802F0FD0222704200D2B215485D
:400D8000027013F0010F06D012220B4B1A700422023B1A7002E00122074B1A704FF400420D4B1A6002E0022108467047084670BC704700BF5B81FF1FD949004080E200E007
:400DC0005E81FF1F5C81FF1F5D81FF1F6881FF1F6481FF1FD849004000E100E000294AD070B40C4627490978C9B2102906D12649097811F0080F11D1002112E021490978B6
:400E0000C9B260290CD14FF4004520490D60204D297801F0F7012970002102E0012100E0022159BB4926174D2E700026194D2E70194D2A70194A1460194A1370144C227855
:400E400002F0FE0222704200D2B242F001021548027013F0010F06D012220B4B1A700422023B1A7002E00122074B1A704FF400420D4B1A6002E0022108467047084670BC7E
:400E8000704700BF5B81FF1FD949004080E200E05E81FF1F6681FF1F6581FF1F6081FF1F6481FF1FD849004000E100E04FF40042084B1A60084B1878C0B2084B1B7813F064
:400EC000400F01D040F004004FF40042044B1A60704700BF80E100E05E81FF1F5B81FF1F00E100E008B50A280FD00C2802D0082806D102E04FF4805209E04FF4807206E00B
:400F0000002000F059FA002201E04FF480620021094B198042F2107303FB02F303F6C413064A82FB0302DB17C3EBE223044A1360044B198008BD00BF7681FF1FAD8BDB686A
:400F40007081FF1F6C81FF1F10B500F02DFA04461E4A137843F0020313701032137843F002031370193A137843F0020313701032137843F00203137002F5AA521932137811
:400F800043F0030313700422114B1A70013B1A7802F0BF021A701A7842F003021A700822053B1A700222A3F59753123B1A70094A137843F0080313700A2000F015FA0122AF
:400FC000054B1A60204600F0F3F910BDAB4300400E5900402F5B004080E200E010B504460A280DD00C2802D0082804D101E0C42207E0442205E0002000F0DEF9C42200E068
:401000008422034B1A702046FFF76CFF10BD00BF0A59004008B5102000F02AF90020072100F000FA0020074900F0E8F9064A137843F0060313700C20FFF7D0FF0022034BCE
:401040001A8008BD95100000095900407481FF1F08B5054B1B7823B9FFF7DCFF0122024B1A70FFF771FF08BD4281FF1F024A137843F001031370704708590040034B1B888A
:40108000034A1088181A00B2704700BFA25B00406C81FF1F704700BF08B500F00DF9A0F5004000B208BD00BF08B5002803DB80B280F4004002E0A0F5004080B200F0F6F805
:4010C00008BD00BF024B187800F00F00704700BF62640040014B1870704700BF8264004008B50F20FFF7F6FFFFF7ECFF00F05CF9034A137843F01003137000F059F908BDFF
:401100009264004008B500F029F94FF4004000F0CDF8044B1B7813B90122024B1A70FFF7DFFF08BD4381FF1F704700BF014B1B689864704708ED00E04001C0B2014B1870FB
:40114000704700BF02E400E00422014B1A60704700E100E00422014B1A60704780E100E008B5FFF7F7FF0448FFF7E0FF0720FFF7E3FFFFF7E9FF08BD2911000010B5044636
:40118000FFF7E8FF2046FFF7D1FF0720FFF7D4FFFFF7DAFF10BD00BF08B50120084900F02DF90120072100F03DF90622054B1A70472210331A70022251331A7008BD00BF39
:4011C000191200002665004010B500F0EDF80446084A137843F0100313700223064A1360A2F5C072136000F0C7F8204600F0E0F810BD00BF9765004080E200E008B5054B57
:401200001B7823B9FFF7C8FF0122024B1A70FFF7DBFF08BD4481FF1F13E0104B1B78DBB2FF2B02D100220D4B1A700C4A1378DBB20B49CB5CDBB20B490B7013780133DBB210
:401240001370064B1B78DBB2074A1278934204D0064B1B7813F0040FDFD070474581FF1F7881FF1F476500404681FF1F67650040034B1A7800F0F80010431870704700BFA5
:4012800086400040024A137843F080031370704773640040014B1870704700BF83640040014B1878704700BF63640040014B1880704700BF0C680040024B1B78024B1888A5
:4012C00080B27047066400408C680040014B188880B270478C680040014B1880704700BF4C680040014B1880704700BF6C68004008B501E0FFF7EAFFFFF7D2FF10F0400FCF
:40130000F8D108BD08B5134B1A7802F0F8021A701A7802F0FC021A70FFF7EAFF4FF40040FFF7DAFF4FF40040FFF7C0FF0020FFF7B1FFFFF7B5FF4FF40040FFF7D3FF00F0DC
:4013400033F8054A137843F01003137000F030F808BD00BF736400409364004008B5054B1B7823B9FFF7CEFF0122024B1A70FFF789FF08BD4881FF1F054A137843F004033E
:4013800013701032137843F004031370704700BFA2430040000000000230800803D000BF01380046FCD17047EFF3108072B6704780F31088704700BF01BE704710B50446DF
:4013C00005E0084B1868FFF7E7FFA4F50044B4F5004FF6D8034B586800FB04F0FFF7DCFF10BD00BF0C81FF1F08B5034B1B7A03FB00F0FFF7D1FF08BD0C81FF1F70B504467E
:401400000E46074B1D681F2802D90020FFF7D4FF04F01F04103455F8240045F8246070BD08ED00E038B504460D46072902D90020FFF7C2FF1F2C02D90020FFF7BDFF04F08F
:401440001F0000F1604000F564406D01EDB2057038BD00BF0E4B70B51E460E4C0025E41AA410A54204D056F8253098470135F8E700F04CF8084B094C1E46E41AA410002571
:40148000A54204D056F8253098470135F8E770BD1815000018150000181500002015000010B5431E0A44914204D011F8014B03F8014FF8E710BD03460244934202D003F859
:4014C000011BFAE77047034611F8012B03F8012B002AF9D17047000000000000C84900401900405100403000F0510040100000000140001000140140000800400140000AB3
:40150000004C01400002005001402000F8B500BFF8BC08BC9E4670474D00000061050000F8B500BFF8BC08BC9E46704729000000401500000881FF1F180000005801000024
:40154000000000000000E02EC05D00001800000000366E01000000000000000000000000000000000000000000000000000000000000000000000000000000000000000083
:40158000000000000000000000000000000000000000000000000000000000000000000000000000000000000000000000000000000000000000000000000000000000002B
:4015C00000000000000000000000000000000000000000000000000000000000000000000000000000000000000000000000000000000000000000000000000000000000EB
:4016000000000000000000000000000000000000000000000000000000000000000000000000000000000000000000000000000000000000000000000000000000000000AA
:40164000000000000000000000000000000000000000000000000000000000000000000000000000000000000000000000000000000000000000000000000000000000006A
:020000040003F7
:0200000480007A
:4000000006520040015B00400364004001650040350201402F0301405A0401403C050140660601403F0701400408014002090140010D01404A1401403F1501406516014027
:400040004717014001190140021B014003400140054101400B42014004430140094501400546014007470140064801400A490140164C0140064D01400550014002510140D9
:40008000081009101001140D6004618C2F84820F836F850F870F050409040C021601170418011F01260127022E02300131013504360237023E413F10540F580459045B04C7
:4000C0005C405D405F01840285048A029204940497029D049E01A301A401A504AA04B104B202B302B404B501B601B902BE54BF01D280D40FD804D904DB04DC40DD40DF056B
:40010000000802040440084009080A400B020F14120813041748180419481E812108220223042442261028402A042F203288334036803708390C3F1459585A015C025D0474
:400140005EA06104622072407908C086C26DC4A6CA43CC5ACE62D6FFD806DE02EA4005060C02110A190C210C220327012E0430013202330E3501360439084010410449FF2F
:400180004AFF4BFF4DA04F0450185280580459045A045B045C405F01604062C06440654066C068C06AC06CC06EC0801083018A018B0C8C029403950299089E0CA204A3015C
:4001C000A608A803B008B102B203B304B404B501B610B708B808BE54BF01C050C104C5D0C612C750C82EC9FFCAFFCBFFCDAFCE0FCF04D018D407D804D904DA04DB04DF015B
:40020000E040E2C0E440E540E6C0E8C0EAC0ECC0EEC00040048005010608080209020E211102134016A0172018401A131C021D091E08200821042640275428402A042E020F
:400240003112371439083E21400C428146804D014E01550156A25D015E98734083409006950897129C029D049E049F08A202A404A6A8A910AA80AF20C0D1C2A0C479CA8399
:40028000CC65CEA2D089D210D6F000030106020C03010701080C0A030F06100F170318051A0A1B051C0A1E0523022407300F33073B084025410649FF4AFF4BFF4DA04F018F
:4002C0005018580459045A045C245D045F016040628064406540668068406A806C406D206E8084408B028C108D0891019203983099019A0C9C099D019E10A01CA101A22210
:40030000A414A508A82CAA11AB01AD04B01FB104B303B508B660B880B920BF01C025C106C54EC6C2C703C81FC9FFCAFFCBFFCDAFCE07CF01D018D804D904DA04DC42DD049C
:40034000DF01E040E280E440E540E680E840EA80EC40ED20EE8000080201051108100A410C400D020F0811011210132015081A411B421D02220923082604272029012A04C3
:400380002B8E2E02304031123410361439A03D013E083F824008440849044A024B124E064F10514052A48A01900291089480971298089C409D149E0C9F28A108A202A5022C
:4003C000A6B8AC01C055C2DBC42ECA8FCC6DCEDCD024D23C39023F0159045F012440E020EA4000010202057306040A07100711FD13021404153017C919CF1B301D9E1F60CE
:400400002001219422022360260828072B0F340F35FF3F10580459045C045F01812082808304840C86018740880C8A028C0B8E048F02912C921093109408951C96019820E9
:400440009A409C409D309E2F9F08A020A240A407A530A704A820AA40AB3CAF01B080B13CB210B302B40FB501B660B740BA80D804D904DC44DF0101200360040205140701B7
:40048000090A0C400D080E410F08104413081508172219201A081C101D101E411FA0230824042540276229202B802E802F28311A33493404374139083C043D803E013F0856
:4004C0007804790886808D048F4090029108941096489D109F40A102A308A780AC80AF10B104B308C0FEC2FCC47ECA75CCDFCED2EA01EC20000102020404070508010A0223
:400500001001120214041503170C19031A041B041E04230824022503260127042A042D0A2F0432033404350F3A083B203E104003474049FF4A074BFF4C404D204EF04F0591
:400540005008580459045A045C245D025F01604061A8624063208210857F86068C188E0691FE93019596976899A39B5C9DC59E189F3AA10EA3F0A402A60CA802AA1CAB017E
:40058000AC01B01EB401B5FFBA02BE10BF10C032C106C50CC6B0C7E0C829C9FFCAFFCBFFCEF0CF44D00CD401D604D804D904DA04DB04DC02DD22DF01E6C0EA40EB02000AB5
:4005C0000302041207200A010C200E600F02100313281504160818801A041B031F1821102610270C28042B802C302E012F02304031123348372439083C084208430445085A
:4006000048204A04500252105405560B58915A046340874090029108920194809520960898049B209C409D109E1BA10AA204A404A610A789AC04AE08C07DC2F1C467CAD528
:40064000CC6FCE42D046D204D60FD801B440EA01EC2032143640CC700B089608A640B610C2403E105280571083109608A640AF04CE20D460E680EC109618A640AE80EE10AE
:400680000101041051045420A720B720C009D406EA02901091019508A420A7208B40901091019508A420A720E004208086409618A640C840E6400B041A0887049608AA108F
:4006C000B040C240C640E040EA801020132015081F203401642079017C1090109101934095089820A420A720B420C40EC601CC01D801DE03E80273409340AB20B001DC0158
:40070000EC04001508100A1510141A14003F03C0C0000000000004008000008C8C008C00000000001000001010001000000000000F0000060B000900400000004000000058
:400740000000000000000000000000000000000000000000000000000000000000000000000000000000000000000000000000000000000000000000000000000000000079
:400780000000000000000000000000000000000000000000000000000000000000000000000000000000000000000000000000000000000000000000000000000000000039
:4007C00000000000000000000000000000000000000000000000000000000000000000000000000000000000000000000000000000000000000000000000000000000000F9
:4008000000000000000000000000000000000000000000000000000000000000000000000000000000000000000000000000000000000000000000000000000000000000B8
:0200000490006A
:0400000000004005B7
:0200000490105A
:04000000BC90ACAF55
:0200000490303A
:02000000E8AD69
:0200000490402A
:4000000000000000000000000000000000000000000000000000000000000000000000000000000000000000000000000000000000000000000000000000000000000000C0
:400040000000000000000000000000000000000000000000000000000000000000000000000000000000000000000000000000000000000000000000000000000000000080
:400080000000000000000000000000000000000000000000000000000000000000000000000000000000000000000000000000000000000000000000000000000000000040
:4000C0000000000000000000000000000000000000000000000000000000000000000000000000000000000000000000000000000000000000000000000000000000000000
:0200000490501A
:0C00000000012E16106900012E1FF916D9
:00000001FF