:400000000080002011000000B5050000B505000008B5044B1A6803F53F5302331A6000F0E3FA00BFFA46004010B5054C237833B9044B13B10448AFF300800123237010BD26
:400040008881FF1F00000000701E0000084B10B51BB108480849AFF300800848036803B910BD074B002BFBD0BDE81040184700BF00000000701E00008C81FF1F0881FF1F25
:40008000000000000122014B1A607047A481FF1F70B5ADF55B5D8AB062B601F09DF800F027FD40F6B83001F03DFA00F0CDFC01F00FF9682000F0F8F800F06CF901F0BAF89A
:4000C000744801F0C5F8022000F004F9002000F0F1F800F06DF900F07DF900F08DF900F09DF900F0ADF900F0BDF901F01BF84FF4BE7000F04FFC00254AE0674B1B68A4B210
:40010000012B45D10DF12E0300930BAB01931AAB0DF13600A3F13401A3F13602383B00F0E9F80DF5FB511831BDF8363021F8153005F57A72BDF8343021F8123005F5FA63DE
:40014000BDF8320021F813000DF60801BDF8300021F81500BDF82E0021F81200BDF82C2021F8132000F0ECFF00F0F2FF0646241A0EAB23F8154000F0F9FF0A2D02D1002071
:4001800000F0FCFF0135ADB20022434B1A603446B5F57A7FB1D1002000F0FCFB01F00EFA0028FBD116E00DF5FB51183104F57A7304F5FA6031F9142031F9133031F9101027
:4001C000009103A8354901F041FA03A801F0C6F8013400E00024B4F57A7FE4DB304C204601F0BCF8204601F0B9F801F0E7F90028FBD115E00DF6080104F57A7304F5FA6097
:4002000031F9142031F9133031F91010009103A8224901F01BFA03A801F0A0F8013400E00024B4F57A7FE5DB1D4C204601F096F8204601F093F801F0C1F90028FBD10BE073
:4002400003A818490EAB33F9142001F0FFF903A801F084F8013400E00024B4F57A7FEFDB01F0ACF90028FBD10BE003A80D490EAB33F9142001F0EAF903A801F06FF8013418
:4002800000E00024B4F57A7FEFDB00200DF55B5D0AB070BD85000000A481FF1F741E0000841E0000881E0000014B1870704700BFBC81FF1F00B583B0054B1B78009018460D
:4002C0001B210422022300F04FF903B05DF804FBBC81FF1F00B583B0054B1B78009018461C210422022300F03FF903B05DF804FBBC81FF1F2DE9F04180460F4616461D46F1
:40030000154C234613F8010B3B210E2200F0BCF86278A37843EA0223A8F80030E278237943EA02233B806279A37943EA02233380627AA37A43EA02232B80E27A237B43EA79
:400340000223069A1380627BA37B43EA0223079A1380BDE8F08100BFBC81FF1F08B50346034A10786B21062200F0DEF808BD00BFBC81FF1F00B583B0054B1B780090184687
:400380006B210222032300F0EFF803B05DF804FBBC81FF1F08B50120FFF7ECFF0020FFF789FF0020FFF796FF0020FFF7D7FF08BD10B5074C234613F8010B0621022200F0A2
:4003C00063F86078A37843EA002000B210BD00BFBC81FF1F10B5074C234613F8010B0821022200F051F86078A37843EA002000B210BD00BFBC81FF1F10B5074C234613F846
:40040000010B0A21022200F03FF86078A37843EA002000B210BD00BFBC81FF1F10B5074C234613F8010B1321022200F02DF86078A37843EA002000B210BD00BFBC81FF1F83
:4004400010B5074C234613F8010B1521022200F01BF86078A37843EA002000B210BD00BFBC81FF1F10B5074C234613F8010B1721022200F009F86078A37843EA002000B2D7
:4004800010BD00BFBC81FF1F70B582B0064614461D4602AB03F8011D19460122022300F0A1FC00F06DFD10F0020FFAD0304629462246012300F0FCFC00F062FD10F0010F0E
:4004C000FAD060B202B070BD08B513460122FFF7DBFF08BDB0B500AF0546541C083222F00702ADEB020D684600F8011B194601F0D1F828466946E2B2002300F073FC00F0AA
:400500003FFD10F0020FFAD00120BD46B0BD00BF00B583B002AB03F8012D0122FFF7DAFF03B05DF804FB00BFF0B583B005460C4616461F460DF10702FFF7C6FF37B10122DB
:40054000B2409DF807301A43D2B205E00122B2409DF8073023EA02028DF8072028462146FFF7D6FF03B0F0BDF0B583B006460D4614461F460DF10702FFF7A6FFB0B10121FE
:40058000B9400139E41B0134A1409DF82030A340DBB20B409DF8072022EA01021A438DF8072030462946FFF7B3FF00E0002003B0F0BD00BFFEE700BF08B5094B1A68104448
:4005C000084BC31A802B02DC054B186005E000F0FDFF0C2303604FF0FF32104608BD00BF0C81FF1FF082FF1F08B5104E104D16E029686B68AC68002204E051F8040B43F813
:40060000040B0432A242F8D1E868002203E0002143F8041B04328242F9D11035013E002EE6D100F0D9FFFFF733FDFEE701000000181F000008B5124A124B1A60124A1368F9
:4006400043F40073136000230AE0032B03D80F4A52F8231000E00E490E4A42F8231001332F2BF2D90C4B1A780C4B1A70094A0C4B1A6000F0EDF800220A4B1A6008BD00BFE4
:400680000004FA050CED00E014ED00E000000000B50500000080FF1FBC7600400481FF1F08ED00E00081FF1FFEE700BFF0B40022174611E050F82760F3B226F0FF0608E06D
:4006C00001EB420511F812406D78A5550132013BDBB2002BF4D101371F2FEBD9F0BC704770B4174B1B78DBB216480278D2B2164C2178C9B203F00706144D2E701B09013523
:400700002B7042F00303037041F0030323704023A5F242752B7005F2DC752B7002352B70042305F21D252B70202603352E702D352B70217002704422054B1A7070BC70476E
:40074000CF010049F8460040F94600406E5800407658004008B50A46002100F06EFF08BD38B500242E4B1C80582202331A70012202331A8018232B4A13704FF49C710232F7
:4007800011800232137047F22F530232138019250232157002321380234B1D70022203F26E231A7008224FF040231A70032103F5007319701D4B1B78DBB21D490B701D4B43
:4007C0001A8041F25122023B1A800CE01A4B1B7803F0010343EA440404F003044FF4F07000F08EFE013D0DB1032CEFD115B90320FFF75AFF114B4FF480721A8007221A706F
:4008000000220F490A704820023108701A700222033B1A700B4A137843F01F03137038BD80400040864000409240004008010049A14600402242004025420040044000402E
:4008400006400040A243004008B500F0EBFE08BD38B572B6314A137843F00403137000240CE02F4963001A1952000A4423445B00C8589188FFF76EFF0134E4B2072CF0D9B7
:400880004FF090402749FFF711FF274A137843F0020313701032137843F002031370234C237843F040032370A2F58632513A137843F0100313701E481E490822FFF7C4FF83
:4008C0001D481E490A22FFF7BFFF1D481D490A22FFF7BAFF1C481D490A22FFF7B5FF1C481C490822FFF7B0FF84221B4B1A701B4A137843F008031370194D61232B70FFF7AC
:400900002FFF81232B700122164B1A70FFF7E8FE154821460E22FFF797FF38BDE84600408C1E00008000004803500140A043004002510040FC060048C051004004070048D3
:400940001051004010070048205100401C0700483251004028070048DB020140224300400048004004000840B0430040024A137843F080031370704775640040014B188093
:40098000704700BF08680040014B1880704700BF88680040014B1880704700BF48680040014B1880704700BF68680040014B1870704700BF85640040014B1878704700BF0E
:4009C00065640040014B188880B27047A868004008B501E0FFF7F6FFFFF7EEFF10F0100FF8D108BD10B5164A137803F0C00343F0090313701F32137843F001031370114C95
:400A0000237843F00103237040F27750FFF7B6FF40F27750FFF7B8FF0020FFF7BBFF0020FFF7BEFF0020FFF7C1FF00F071FD237843F01003237000F06FFDFFF7C9FF10BDD5
:400A4000756400409564004008B5054B1B7823B9FFF7C8FF0122024B1A70FFF787FF08BDA881FF1F10B50222114B1A7081220E3B1A70082202331A70042211331A70002423
:400A800001331C704FF400420A4B1A600F20072100F07CFD0F20084900F064FD1022074B1A70074B1C70074B1C70074B1C7010BDD649004080E100E0190B0000CB81FF1FEE
:400AC000CE81FF1FD681FF1FCC81FF1F08B500F01FFD064A137843F0040313701032137843F00403137000F017FD08BDA543004008B5074B1B7823B9FFF7B4FF0122044B34
:400B00001A70FFF7E3FF4FF40042024B1A6008BDA981FF1F00E100E038B5A44B1C78E4B2A34B1B7813F0400F00F0378114F0010F00F01B819E4B1B78453B052B00F2128167
:400B4000DFE813F006008200100110010600DE0004F0DF0504F00A04082C42D1944B1B78DBB2452B35D1934B1B7813F0FF0F10D0914B1B681B78DBB2904A137004228B4B4D
:400B80001A7001228E4B1A704622894B1A702C46EBE08C4B1B7813F0020F0DD08A4A137843F00A0313706022814B1A704FF40042864B1A602C46D8E0854A137843F0100333
:400BC00013701022834B1A700422023B1A702C46CBE00022754B1A704A22754B1A702C46C3E00A2C2BD1784A137843F0A0031370744B1B7813F0020F14D06D4B1B7813F037
:400C0000080F01D0092300E00A236F4A11780B4313706022664B1A704FF400426B4B1A602C46A2E06A4A137843F0100313701022684B1A700422023B1A702C4695E00020AF
:400C400000F06EFC2C4690E014F0020F35D15C4B1B78584A1278DBB2934210D2584A1378DBB255490968CB5CDBB254490B7004214E4B197013780133DBB2137075E0514BD7
:400C80001B7813F0020F0CD04F4A137843F00A0313706022464B1A704FF400424B4B1A6063E04B4A137843F0100313701022494B1A700422023B1A7057E0424B1B7813F0D5
:400CC000020F0CD0404A137843F09A0313706022374B1A704FF400423C4B1A6045E03C4A137843F01003137010223A4B1A700422023B1A70344A137843F09003137034E0F8
:400D0000354A1378DBB2354908682C490978C9B2C15413780133DBB213701378304A1278DBB2934203D21022204B1A701DE0254B1B7813F0020F0CD0234A137843F00903C5
:400D4000137060221A4B1A704FF400421F4B1A600BE01F4A137843F0100313700022134B1A7002E0002000F0DBFB14F0200F1CD00F4B1B7813F0080F01D0012300E002237C
:400D8000114A11780B431370114A137803F0EF0313701022064B1A7038BD054B1B7813F0100F02D11022024B1A7038BDD7490040CB81FF1FCD81FF1FD881FF1FD84900404A
:400DC000CC81FF1FD481FF1FCE81FF1F80E100E0D6490040D9490040D681FF1FD081FF1FD581FF1F002948D070B40C4626490978C9B2102906D12549097811F0080F11D133
:400E0000002112E020490978C9B260290CD14FF400451F490D601F4D297801F0F7012970002102E0012100E0022149BB4526164D2E700026184D2E70184D2A70184A146052
:400E4000184A1370134C227802F0FD0222704200D2B21548027013F0010F06D012220B4B1A700422023B1A7002E00122074B1A704FF400420D4B1A6002E002210846704750
:400E8000084670BC704700BFCB81FF1FD949004080E200E0CE81FF1FCC81FF1FCD81FF1FD881FF1FD481FF1FD849004000E100E000294AD070B40C4627490978C9B2102986
:400EC00006D12649097811F0080F11D1002112E021490978C9B260290CD14FF4004520490D60204D297801F0F7012970002102E0012100E0022159BB4926174D2E70002691
:400F0000194D2E70194D2A70194A1460194A1370144C227802F0FE0222704200D2B242F001021548027013F0010F06D012220B4B1A700422023B1A7002E00122074B1A70DD
:400F40004FF400420D4B1A6002E0022108467047084670BC704700BFCB81FF1FD949004080E200E0CE81FF1FD681FF1FD581FF1FD081FF1FD481FF1FD849004000E100E0B8
:400F80004FF40042084B1A60084B1878C0B2084B1B7813F0400F01D040F004004FF40042044B1A60704700BF80E100E0CE81FF1FCB81FF1F00E100E008B50A280FD00C28AE
:400FC00002D0082806D102E04FF4805209E04FF4807206E0002000F0A3FA002201E04FF480620021094B198042F2107303FB02F303F6C413064A82FB0302DB17C3EBE22349
:40100000044A1360044B198008BD00BFE681FF1FAD8BDB68E081FF1FDC81FF1F10B500F077FA04461E4A137843F0020313701032137843F002031370193A137843F00203CD
:4010400013701032137843F00203137002F5AA521932137843F0030313700422114B1A70013B1A7802F0BF021A701A7842F003021A700822053B1A700222A3F59753123B8F
:401080001A70094A137843F0080313700A2000F05FFA0122054B1A60204600F03DFA10BDAB4300400E5900402F5B004080E200E010B504460A280DD00C2802D0082804D143
:4010C00001E0C42207E0442205E0002000F028FAC42200E08422034B1A702046FFF76CFF10BD00BF0A59004008B5102000F074F90020072100F04AFA0020074900F032FA39
:40110000064A137843F0060313700C20FFF7D0FF0022034B1A8008BD6911000009590040E481FF1F08B5054B1B7823B9FFF7DCFF0122024B1A70FFF771FF08BDAA81FF1FFB
:40114000024A137843F001031370704708590040034B1B88034A1088181A00B2704700BFA25B0040DC81FF1F704700BF08B500F057F9A0F5004000B208BD00BF08B500283B
:4011800003DB80B280F4004002E0A0F5004080B200F040F908BD00BF024B187800F00F00704700BF62640040014B1870704700BF8264004008B50F20FFF7F6FFFFF7ECFF55
:4011C00000F0A6F9034A137843F01003137000F0A3F908BD9264004008B500F073F94FF4004000F017F9044B1B7813B90122024B1A70FFF7DFFF08BDAB81FF1F704700BF9B
:40120000014B1B689864704708ED00E04001C0B2014B1870704700BF02E400E00422014B1A60704700E100E00422014B1A60704780E100E008B5FFF7F7FF0448FFF7E0FF82
:401240000720FFF7E3FFFFF7E9FF08BDFD11000010B50446FFF7E8FF2046FFF7D1FF0720FFF7D4FFFFF7DAFF10BD00BF08B50120084900F077F90120072100F087F90622EB
:40128000054B1A70472210331A70022251331A7008BD00BF811300002465004010B500F037F90446084A137843F0100313700223064A1360A2F5C072136000F011F92046B2
:4012C00000F02AF910BD00BF9565004080E200E008B5054B1B7823B9FFF7C8FF0122024B1A70FFF7DBFF08BDAC81FF1F164B99785B78DBB2994205D25A1E914214BF0022FC
:40130000012204E0CA1AFE2A14BF00220122002AECD18B4207D10D4B1B7813F0040F02D10B4B18707047FF2900D10021094B58540131054B9970054B1B7813F0020F02D01F
:401340000222054B1A607047AC81FF1F6565004045650040E881FF1F00E200E038B5074B1B782BB938BDFFF7C1FF0134A4B201E005460024285D0028F5D138BDAC81FF1F51
:4013800013E0104B1B78DBB2FF2B02D100220D4B1A700C4A1378DBB20B49CB5CDBB20B490B7013780133DBB21370064B1B78DBB2074A1278934204D0064B1B7813F0040FBB
:4013C000DFD07047AD81FF1FE881FF1F45650040AE81FF1F65650040034B1A7800F0F80010431870704700BF86400040024A137843F080031370704777640040014B18709E
:40140000704700BF83640040014B1878704700BF63640040014B1880704700BF0C680040024B1B78024B188880B27047066400408C680040014B188880B270478C6800400B
:40144000014B1880704700BF4C680040014B1880704700BF6C68004008B501E0FFF7EAFFFFF7D2FF10F0400FF8D108BD08B5134B1A7802F0F8021A701A7802F0FC021A7060
:40148000FFF7EAFF4FF40040FFF7DAFF4FF40040FFF7C0FF0020FFF7B1FFFFF7B5FF4FF40040FFF7D3FF00F033F8054A137843F01003137000F030F808BD00BF7764004093
:4014C0009364004008B5054B1B7823B9FFF7CEFF0122024B1A70FFF789FF08BDB081FF1F054A137843F0040313701032137843F004031370704700BFA2430040000000002E
:401500000230800803D000BF01380046FCD17047EFF3108072B6704780F31088704700BF01BE704710B5044605E0084B1868FFF7E7FFA4F50044B4F5004FF6D8034B5868C0
:4015400000FB04F0FFF7DCFF10BD00BF1081FF1F08B5034B1B7A03FB00F0FFF7D1FF08BD1081FF1F70B504460E46074B1D681F2802D90020FFF7D4FF04F01F04103455F85B
:40158000240045F8246070BD08ED00E038B504460D46072902D90020FFF7C2FF1F2C02D90020FFF7BDFF04F01F0000F1604000F564406D01EDB2057038BD00BF024B187890
:4015C000C0F38000704700BF21510040014B1868704700BF8081FF1F0E4B70B51E460E4C0025E41AA410A54204D056F8253098470135F8E700F07EFC084B094C1E46E41A56
:40160000A4100025A54204D056F8253098470135F8E770BD001F0000001F0000001F0000081F000010B5431E0A44914204D011F8014B03F8014FF8E710BD03460244934203
:4016400002D003F8011BFAE7704700000EB400B54FF402719CB0ADF814106FF00041049107914FF6FF711DABADF81610084953F8042B02900690086802A9019300F06CF89C
:40168000029B00221A701CB05DF804EB03B070478081FF1F034611F8012B03F8012B002AF9D170472DE9F0478E688246B3420C469046994640D38A8912F4906F3AD025682F
:4016C000096902236F1A656905EB450595FBF3F57B1C4B449D4238BF1D4653050FD5294600F030FB064698B121693A46FFF79AFFA38923F4906343F08003A38113E02A4684
:4017000000F076FB064670B95046216900F0D6FA0C23CAF80030A3894FF0FF3043F04003A381BDE8F08726613E4426604E466561ED1BA560B14500D24E46324620684146A9
:4017400000F0A0FAA36800209B1BA36023681E442660BDE8F08700002DE9F0439DB003938B8906461C060D4690460CD50B6953B9402100F0E7FA2860286110B90C23336066
:40178000CCE040236B610023099320238DF8293030238DF82A3043461C4613F8012B1AB9B4EB08090FD002E0252AF5D1F8E73046294642464B46FFF775FF013000F0A98030
:4017C000099B4B4409932378002B00F0A28000234FF0FF3204930793059206938DF853301A9304F101084446DFF8489121784846052200F039FA08F10108049B30B1C9EBBA
:4018000000000122824013430493ECE7D80644BF20228DF85320190744BF2B228DF8532022782A2A02D0079923460EE0039A0134111D12680391002ABBBF524243F002034B
:4018400007920792B8BF04930AE01C4622780133303A092A03D80A2000FB0121F5E7079123782E2B1AD163782A2B0AD1039B02341A1D1B680392002BB8BF4FF0FF33059323
:401880000CE0611C00220C4623780131303B092B03D80A2000FB0232F5E70592DFF8988021784046032200F0DFF938B1049AC8EB00004023834013430493013421781A48C0
:4018C000062204F101088DF8281000F0CDF988B1164B33B9039B073323F007030833039313E003AB0093304604A92A46104BAFF3008007E003AB0093304604A92A460C4BAD
:4019000000F092F8421C074603D0099B3B44099341E7AB895B0601D4099801E04FF0FF301DB0BDE8F08300BFC81E000000000000A5160000BE1E0000C41E00002DE9F8431A
:4019400091461F468A680B6906469342B8BF1346C9F8003091F843200C46DDF8208012B10133C9F800302368990642BFD9F800300233C9F80030256815F006051CD094F8E1
:4019800043302268003318BF012392061FD5E118302081F843005A1C94F845102244023382F8431013E03046394604F119020123C047013007D00135E368D9F800209B1A5A
:4019C0009D42F0DBDBE74FF0FF30BDE8F8833046394604F14302C0470130F4D02268D9F80050E36802F00602042A08BF5D1B2269A3680CBF25EAE57500259342C4BF9B1A69
:401A0000ED184FF00009A9450ADA3046394604F11A020123C0470130D5D009F10109F2E70020BDE8F88300002DE9FF410C461746227E98466E2A06460A9B01F1430100F031
:401A4000B08012D8632A23D00AD8002A00F0BD80582A40F0CC8084F84520DFF804E257E0642A1ED0692A1CD0C1E0732A00F0B18009D86F2A2ED0702A40F0B980226842F02F
:401A8000200222603FE0752A24D0782A3BD0AEE01A6804F14205111D1960136884F84230A9E020681A6810F0800F02D0101D186008E010F0400F02F10400186002D0B2F90B
:401AC000003000E01368002B3EDA2D225B4284F8432039E020681A6810F0800F02D0101D186007E010F0400F02F10400186001D0138800E01368227EDFF864E16F2A0CBF98
:401B000008220A221CE07822DFF858E184F845202268186812F0800F00F104051D6003D1550601D5038800E00368D00744BF42F0200222601BB9226822F0200222601022E5
:401B4000002084F8430002E0DFF814E10A226568002DA8BF2068A560A4BF20F00400206003B965B10D46B3FBF2F002FB10331EF8033005F8013D03460028F4D100E00D46E5
:401B8000082A0BD12368DA0708D5236962689A42DEBF302305F8013C05F1FF35491B21612EE025681A6815F0800F606903D0151D1D60136808E015F0400F02F104051D6036
:401BC000136801D0188000E01860002323610D4616E01A68111D1960156800212846626800F042F808B1401B6060636804E004F1420584F8422001232361002384F8433039
:401C0000CDF800803046214603AA3B46FFF796FE013002D14FF0FF301FE0304639462A462369C0470130F5D023689B0705D4E068039B9842B8BF18460FE00025E368039AD4
:401C40009B1A9D42F3DA3046394604F119020123C0470130DED00135F0E704B0BDE8F081CF1E0000E01E000010B5C9B202449042034605D01C7801308C42F8D1184610BD35
:401C8000002010BD814210B501EB020301D3421E0BE09842FBD28118D21AD34204D013F8014D01F8014DF8E710BD994204D011F8014B02F8014FF8E710BD000030B5002936
:401CC0003CD051F8042C0B1F1D49002AB8BF9B180A680C4612B95A600B6030BD93420DD219685818904201BF5A5852181A60426823605A6030BD994203D80A465168002951
:401D0000F9D1146815199D420AD11B682344D0188842136012D10868034413604B680CE002D90C23036030BD1C681819884201BF08684968001918605960536030BD00BF57
:401D4000B881FF1F70B5CC1C24F0030408340C2C38BF0C24002C064603DA0C233360002070BD8C42F9D3204A136810461946A1B10A68121B0ED40B2A03D90A608B188C50E4
:401D80001FE08B420BBF5A684A6802605A6018BF0B4616E00B464968E9E7144D2B681BB9304600F04BF828603046214600F046F8421C0346D1D0C51C25F0030585420AD121
:401DC0001C6003F10B001A1D20F00700821A0AD05142995070BD3046E91A00F02FF80130BBD02B46ECE770BDB881FF1FB481FF1FF8B5074615460E4621B91146BDE8F840DD
:401E0000FFF7A0BF1AB9FFF759FF2846F8BD00F025F8A8420ED238462946FFF793FF044650B131462A46FFF7FDFB38463146FFF745FF01E03046F8BD2046F8BD38B5064C08
:401E40000023054608462360FEF7B6FB431C02D1236803B12B6038BDE882FF1F51F8040C0028BEBF091851F8043CC018043870470000000025642009202564200920256464
:401E8000200A00000A00000025640A00C84900401900405100403000F0510040100000000140001000140140000800400140000A004C014000020050014020004300232D53
:401EC000302B2000686C4C006566674546470030313233343536373839414243444546003031323334353637383961626364656600000000F8B500BFF8BC08BC9E467047C0
:401F00004D00000035060000F8B500BFF8BC08BC9E46704729000000281F00000881FF1F800000006801000000000000F082FF1F0000E02EC05D00001800000000366E0122
:401F40000000000000000000000000000000000000000000000000000000000000000000BC1E00000000000000000000000000000000000000000000000000000000000087
:401F800000000000000000000000000000000000000000000000000000000000000000002081FF1F0000000000000000000000000000000000000000000000000000000062
:401FC00000000000000000000000000000000000000000000000000000000000000000000000000000000000000000000000000000000000000000000000000000000000E1
:4020000000000000000000000000000000000000000000000000000000000000000000000000000000000000000000000000000000000000000000000000000000000000A0
:402040000000000000000000000000000000000000000000000000000000000000000000000000000000000000000000000000000000000000000000000000000000000060
:402080000000000000000000000000000000000000000000000000000000000000000000000000000000000000000000000000000000000000000000000000000000000020
:020000040003F7
:0200000480007A
:4000000006520040015B004003640040016500403B020140320301405D0401403E050140670601403B0701400408014001090140010D01405E1401404D1501404716014019
:400040002F17014001190140031B014003400140074101400B42014004430140074501400546014005470140044801400C490140154C0140074D01400550014002510140F2
:40008000081009101001140D6008618C2F84820F836F850F850F060109041601170418011D0225042A022B03300131013202330435023E013F04540F580459045B045C04C7
:4000C0005D405F01810483028502870489028A018B04970199109A049F10A108A208A402A502A704AA02AF08B002B106B204B308B401B501B608B710BB02BE01BF44D40FDA
:40010000D804D904DB04DC44DD40DF05001005080B080C200F20124813081404181019011B601E801F04210122442348261027602A402B602C202E2030A032183508374063
:40014000381039023B083C203F2059015A885B105C0E5E805F20610462107808C022C262C44ECA6BCC5ECE27D6FFD806DE02E60400080507090C0B020F0F110B13041406AF
:400180001508170118031F102006210C230128082C053208330F3407351038284030410449FF4AFF4BFF4DA04F045018580459045A045C445F01604062C06440654066C00C
:4001C00068C06AC06CC06EC08201870C8A048B01960699089C08A202AB01AD02B004B101B201B304B402B502B608B708BE50BF10C030C104C5D0C652C701C81EC9FFCAFF0B
:40020000CBFFCDAFCE0FCF04D018D280D407D804D904DA04DB04DF01E040E2C0E440E540E6C0E8C0EAC0ECC0EEC00240060807400A040B100E121040120A168018041908E1
:400240001A041C121D081E181F02221023102641271428402E102F02308431013202371038043B503E2840104280450846804D0156A8580259015D015EA8774083049340B0
:40028000940496209C029D0C9E70A210A490A608AA08AB10AC04C058C2A6C41BCA31CC2BCE6ED0C3D6F000070573099E0B600D300FC9100411FD1302140116021A071B0FAF
:4002C0001DCF1E081F3022042407280129942A022B6031FF320F3F014054410349FF4AFF4BFF4DA04F015018580459045A045C045D045F0160406280644065406680684015
:400300006A806C406D206E80857F880289C58B3A8D968E028F689301950E97F098019DA39F5CA001A1FEA301A801AE02B001B5FFB602B802BE41BF10C015C103C54EC6C3B8
:40034000C702C81FC9FFCAFFCBFFCDAFCE07CF01D018D280D804D904DA04DB04DD44DF01E040E280E440E540E680E840EA80EC40ED20EE8000100202050108200A040B08D3
:400380000C100E020F501248138014641A011B421C201D081E202304260129012C042D802E802F0A30403282330834103501369038803B583E043F504108420145084680A0
:4003C000488049844F8052587380920493509C449D059E50A490A608AC01C013C2F2C47BCA21CCBBCE7ED0CAD21838023E0158045F011C40E60401020205030C0502071CBE
:400400001606171819181A031B061E021F1024062601270629012A0133013407351E3A203B203F044006460449FF4A074BFF4C404D204EF04F055008580459045A045C223B
:400440005D025F01604061A8624063208409850386108704880C8A118B088C209010920C950A960397049C109D039F0CA014A41CA503A602A704AB05B21FB420B70FBB807E
:40048000BE10C052C106C5E0C60BC70CC816C9FFCAFFCBFFCEF0CF44D00CD401D604D804D904DA04DB04DC22DD22DF01E6C0EA40EB020280048005200620080409800A14A3
:4004C0000D880E801204130816801708180819201A041D081E081F0822142308240226C02A042B082C082E0430043180321036403708380A3D083E304420450446044804C2
:400500004C414D21500851805204550456805CA05D015E08660182018A0492109402962498809D209E04A004A504A884AA12B302B501B710C0E8C2B7C436CA66CC5ECE6364
:40054000D020D234D6F0D880EA01ECA00120040F0720081009180A200B020C050D100E0A0F0211161308140A160517201810190E1AA01C101D181E601F04200C220323207D
:400580002407252028232A1C2B1E2F01300F32303301344035203680371E3A083F10580459045C445F0181068710880189088F0893019508960199049D08A001A108A70202
:4005C000A802A906B118B203B301B506B808B920BF10D804D904DC42DF0101200480051007100A200E0A0F1011011204142417021A101D111E021F0820182202240826841A
:40060000270229292A042E062F0A32923308342035093680388239013B143D093F5090809354941098249D01A682A708C0E2C2E4C47ACAF7CCFFCEFFB440E080EA01EC204F
:4006400032843710CC700A01828096089F10A680C240E6203E1052805680828096089F10AE01CE20D460E280E81096189F10AE80EE1001010410510454208380C009D4063B
:40068000901091019508A420A780901091019508A420A780208096189F10C8400A011A08831096099F10AA10B040B201C240C640E220EA801020132015081F80340164200A
:4006C00079017C109010910195089820A420A780B420C40EC601CC01D801DE03E8027B018B01AB20B001DC01E001EC04001108110A1110141A14003F03C00000C000000019
:40070000000004008000008C8C008C00000000001000001010001000000000000F0000060B00090040000000400000000000000000000000000000000000000000000000A8
:400740000000000000000000000000000000000000000000000000000000000000000000000000000000000000000000000000000000000000000000000000000000000079
:400780000000000000000000000000000000000000000000000000000000000000000000000000000000000000000000000000000000000000000000000000000000000039
:4007C00000000000000000000000000000000000000000000000000000000000000000000000000000000000000000000000000000000000000000000000000000000000F9
:4008000000000000000000000000000000000000000000000000000000000000000000000000000000000000000000000000000000000000000000000000000000000000B8
:0200000490006A
:0400000000004005B7
:0200000490105A
:04000000BC90ACAF55
:0200000490303A
:02000000AC57FB
:0200000490402A
:4000000000000000000000000000000000000000000000000000000000000000000000000000000000000000000000000000000000000000000000000000000000000000C0
:400040000000000000000000000000000000000000000000000000000000000000000000000000000000000000000000000000000000000000000000000000000000000080
:400080000000000000000000000000000000000000000000000000000000000000000000000000000000000000000000000000000000000000000000000000000000000040
:4000C0000000000000000000000000000000000000000000000000000000000000000000000000000000000000000000000000000000000000000000000000000000000000
:0200000490501A
:0C00000000012E16106900012E23BCC068
:00000001FF